{
  "_format": "hh-sol-artifact-1",
  "contractName": "KantaroToken",
  "sourceName": "contracts/KantaroToken.sol",
  "abi": [
    {
      "inputs": [],
      "stateMutability": "nonpayable",
      "type": "constructor"
    },
    {
      "anonymous": false,
      "inputs": [
        {
          "indexed": true,
          "internalType": "address",
          "name": "owner",
          "type": "address"
        },
        {
          "indexed": true,
          "internalType": "address",
          "name": "approved",
          "type": "address"
        },
        {
          "indexed": true,
          "internalType": "uint256",
          "name": "tokenId",
          "type": "uint256"
        }
      ],
      "name": "Approval",
      "type": "event"
    },
    {
      "anonymous": false,
      "inputs": [
        {
          "indexed": true,
          "internalType": "address",
          "name": "owner",
          "type": "address"
        },
        {
          "indexed": true,
          "internalType": "address",
          "name": "operator",
          "type": "address"
        },
        {
          "indexed": false,
          "internalType": "bool",
          "name": "approved",
          "type": "bool"
        }
      ],
      "name": "ApprovalForAll",
      "type": "event"
    },
    {
      "anonymous": false,
      "inputs": [
        {
          "indexed": true,
          "internalType": "address",
          "name": "delegator",
          "type": "address"
        },
        {
          "indexed": true,
          "internalType": "address",
          "name": "fromDelegate",
          "type": "address"
        },
        {
          "indexed": true,
          "internalType": "address",
          "name": "toDelegate",
          "type": "address"
        }
      ],
      "name": "DelegateChanged",
      "type": "event"
    },
    {
      "anonymous": false,
      "inputs": [
        {
          "indexed": true,
          "internalType": "address",
          "name": "delegate",
          "type": "address"
        },
        {
          "indexed": false,
          "internalType": "uint256",
          "name": "previousBalance",
          "type": "uint256"
        },
        {
          "indexed": false,
          "internalType": "uint256",
          "name": "newBalance",
          "type": "uint256"
        }
      ],
      "name": "DelegateVotesChanged",
      "type": "event"
    },
    {
      "anonymous": false,
      "inputs": [
        {
          "indexed": false,
          "internalType": "uint8",
          "name": "version",
          "type": "uint8"
        }
      ],
      "name": "Initialized",
      "type": "event"
    },
    {
      "anonymous": false,
      "inputs": [
        {
          "indexed": false,
          "internalType": "address",
          "name": "account",
          "type": "address"
        }
      ],
      "name": "Paused",
      "type": "event"
    },
    {
      "anonymous": false,
      "inputs": [
        {
          "indexed": true,
          "internalType": "bytes32",
          "name": "role",
          "type": "bytes32"
        },
        {
          "indexed": true,
          "internalType": "bytes32",
          "name": "previousAdminRole",
          "type": "bytes32"
        },
        {
          "indexed": true,
          "internalType": "bytes32",
          "name": "newAdminRole",
          "type": "bytes32"
        }
      ],
      "name": "RoleAdminChanged",
      "type": "event"
    },
    {
      "anonymous": false,
      "inputs": [
        {
          "indexed": true,
          "internalType": "bytes32",
          "name": "role",
          "type": "bytes32"
        },
        {
          "indexed": true,
          "internalType": "address",
          "name": "account",
          "type": "address"
        },
        {
          "indexed": true,
          "internalType": "address",
          "name": "sender",
          "type": "address"
        }
      ],
      "name": "RoleGranted",
      "type": "event"
    },
    {
      "anonymous": false,
      "inputs": [
        {
          "indexed": true,
          "internalType": "bytes32",
          "name": "role",
          "type": "bytes32"
        },
        {
          "indexed": true,
          "internalType": "address",
          "name": "account",
          "type": "address"
        },
        {
          "indexed": true,
          "internalType": "address",
          "name": "sender",
          "type": "address"
        }
      ],
      "name": "RoleRevoked",
      "type": "event"
    },
    {
      "anonymous": false,
      "inputs": [
        {
          "indexed": true,
          "internalType": "address",
          "name": "from",
          "type": "address"
        },
        {
          "indexed": true,
          "internalType": "address",
          "name": "to",
          "type": "address"
        },
        {
          "indexed": true,
          "internalType": "uint256",
          "name": "tokenId",
          "type": "uint256"
        }
      ],
      "name": "Transfer",
      "type": "event"
    },
    {
      "anonymous": false,
      "inputs": [
        {
          "indexed": false,
          "internalType": "address",
          "name": "account",
          "type": "address"
        }
      ],
      "name": "Unpaused",
      "type": "event"
    },
    {
      "inputs": [],
      "name": "DEFAULT_ADMIN_ROLE",
      "outputs": [
        {
          "internalType": "bytes32",
          "name": "",
          "type": "bytes32"
        }
      ],
      "stateMutability": "view",
      "type": "function"
    },
    {
      "inputs": [],
      "name": "DOMAIN_SEPARATOR",
      "outputs": [
        {
          "internalType": "bytes32",
          "name": "",
          "type": "bytes32"
        }
      ],
      "stateMutability": "view",
      "type": "function"
    },
    {
      "inputs": [],
      "name": "MINTER_ROLE",
      "outputs": [
        {
          "internalType": "bytes32",
          "name": "",
          "type": "bytes32"
        }
      ],
      "stateMutability": "view",
      "type": "function"
    },
    {
      "inputs": [],
      "name": "PAUSER_ROLE",
      "outputs": [
        {
          "internalType": "bytes32",
          "name": "",
          "type": "bytes32"
        }
      ],
      "stateMutability": "view",
      "type": "function"
    },
    {
      "inputs": [
        {
          "internalType": "address",
          "name": "to",
          "type": "address"
        },
        {
          "internalType": "uint256",
          "name": "tokenId",
          "type": "uint256"
        }
      ],
      "name": "approve",
      "outputs": [],
      "stateMutability": "nonpayable",
      "type": "function"
    },
    {
      "inputs": [
        {
          "internalType": "address",
          "name": "owner",
          "type": "address"
        }
      ],
      "name": "balanceOf",
      "outputs": [
        {
          "internalType": "uint256",
          "name": "",
          "type": "uint256"
        }
      ],
      "stateMutability": "view",
      "type": "function"
    },
    {
      "inputs": [
        {
          "internalType": "address",
          "name": "delegatee",
          "type": "address"
        }
      ],
      "name": "delegate",
      "outputs": [],
      "stateMutability": "nonpayable",
      "type": "function"
    },
    {
      "inputs": [
        {
          "internalType": "address",
          "name": "delegatee",
          "type": "address"
        },
        {
          "internalType": "uint256",
          "name": "nonce",
          "type": "uint256"
        },
        {
          "internalType": "uint256",
          "name": "expiry",
          "type": "uint256"
        },
        {
          "internalType": "uint8",
          "name": "v",
          "type": "uint8"
        },
        {
          "internalType": "bytes32",
          "name": "r",
          "type": "bytes32"
        },
        {
          "internalType": "bytes32",
          "name": "s",
          "type": "bytes32"
        }
      ],
      "name": "delegateBySig",
      "outputs": [],
      "stateMutability": "nonpayable",
      "type": "function"
    },
    {
      "inputs": [
        {
          "internalType": "address",
          "name": "account",
          "type": "address"
        }
      ],
      "name": "delegates",
      "outputs": [
        {
          "internalType": "address",
          "name": "",
          "type": "address"
        }
      ],
      "stateMutability": "view",
      "type": "function"
    },
    {
      "inputs": [
        {
          "internalType": "uint256",
          "name": "tokenId",
          "type": "uint256"
        }
      ],
      "name": "getApproved",
      "outputs": [
        {
          "internalType": "address",
          "name": "",
          "type": "address"
        }
      ],
      "stateMutability": "view",
      "type": "function"
    },
    {
      "inputs": [
        {
          "internalType": "uint256",
          "name": "blockNumber",
          "type": "uint256"
        }
      ],
      "name": "getPastTotalSupply",
      "outputs": [
        {
          "internalType": "uint256",
          "name": "",
          "type": "uint256"
        }
      ],
      "stateMutability": "view",
      "type": "function"
    },
    {
      "inputs": [
        {
          "internalType": "address",
          "name": "account",
          "type": "address"
        },
        {
          "internalType": "uint256",
          "name": "blockNumber",
          "type": "uint256"
        }
      ],
      "name": "getPastVotes",
      "outputs": [
        {
          "internalType": "uint256",
          "name": "",
          "type": "uint256"
        }
      ],
      "stateMutability": "view",
      "type": "function"
    },
    {
      "inputs": [
        {
          "internalType": "bytes32",
          "name": "role",
          "type": "bytes32"
        }
      ],
      "name": "getRoleAdmin",
      "outputs": [
        {
          "internalType": "bytes32",
          "name": "",
          "type": "bytes32"
        }
      ],
      "stateMutability": "view",
      "type": "function"
    },
    {
      "inputs": [
        {
          "internalType": "address",
          "name": "account",
          "type": "address"
        }
      ],
      "name": "getVotes",
      "outputs": [
        {
          "internalType": "uint256",
          "name": "",
          "type": "uint256"
        }
      ],
      "stateMutability": "view",
      "type": "function"
    },
    {
      "inputs": [
        {
          "internalType": "bytes32",
          "name": "role",
          "type": "bytes32"
        },
        {
          "internalType": "address",
          "name": "account",
          "type": "address"
        }
      ],
      "name": "grantRole",
      "outputs": [],
      "stateMutability": "nonpayable",
      "type": "function"
    },
    {
      "inputs": [
        {
          "internalType": "bytes32",
          "name": "role",
          "type": "bytes32"
        },
        {
          "internalType": "address",
          "name": "account",
          "type": "address"
        }
      ],
      "name": "hasRole",
      "outputs": [
        {
          "internalType": "bool",
          "name": "",
          "type": "bool"
        }
      ],
      "stateMutability": "view",
      "type": "function"
    },
    {
      "inputs": [],
      "name": "initialize",
      "outputs": [],
      "stateMutability": "nonpayable",
      "type": "function"
    },
    {
      "inputs": [
        {
          "internalType": "address",
          "name": "owner",
          "type": "address"
        },
        {
          "internalType": "address",
          "name": "operator",
          "type": "address"
        }
      ],
      "name": "isApprovedForAll",
      "outputs": [
        {
          "internalType": "bool",
          "name": "",
          "type": "bool"
        }
      ],
      "stateMutability": "view",
      "type": "function"
    },
    {
      "inputs": [],
      "name": "name",
      "outputs": [
        {
          "internalType": "string",
          "name": "",
          "type": "string"
        }
      ],
      "stateMutability": "view",
      "type": "function"
    },
    {
      "inputs": [
        {
          "internalType": "address",
          "name": "owner",
          "type": "address"
        }
      ],
      "name": "nonces",
      "outputs": [
        {
          "internalType": "uint256",
          "name": "",
          "type": "uint256"
        }
      ],
      "stateMutability": "view",
      "type": "function"
    },
    {
      "inputs": [
        {
          "internalType": "uint256",
          "name": "tokenId",
          "type": "uint256"
        }
      ],
      "name": "ownerOf",
      "outputs": [
        {
          "internalType": "address",
          "name": "",
          "type": "address"
        }
      ],
      "stateMutability": "view",
      "type": "function"
    },
    {
      "inputs": [],
      "name": "pause",
      "outputs": [],
      "stateMutability": "nonpayable",
      "type": "function"
    },
    {
      "inputs": [],
      "name": "paused",
      "outputs": [
        {
          "internalType": "bool",
          "name": "",
          "type": "bool"
        }
      ],
      "stateMutability": "view",
      "type": "function"
    },
    {
      "inputs": [
        {
          "internalType": "bytes32",
          "name": "role",
          "type": "bytes32"
        },
        {
          "internalType": "address",
          "name": "account",
          "type": "address"
        }
      ],
      "name": "renounceRole",
      "outputs": [],
      "stateMutability": "nonpayable",
      "type": "function"
    },
    {
      "inputs": [
        {
          "internalType": "bytes32",
          "name": "role",
          "type": "bytes32"
        },
        {
          "internalType": "address",
          "name": "account",
          "type": "address"
        }
      ],
      "name": "revokeRole",
      "outputs": [],
      "stateMutability": "nonpayable",
      "type": "function"
    },
    {
      "inputs": [
        {
          "internalType": "address",
          "name": "to",
          "type": "address"
        },
        {
          "internalType": "uint256",
          "name": "tokenId",
          "type": "uint256"
        },
        {
          "internalType": "string",
          "name": "uri",
          "type": "string"
        }
      ],
      "name": "safeMint",
      "outputs": [],
      "stateMutability": "nonpayable",
      "type": "function"
    },
    {
      "inputs": [
        {
          "internalType": "address",
          "name": "from",
          "type": "address"
        },
        {
          "internalType": "address",
          "name": "to",
          "type": "address"
        },
        {
          "internalType": "uint256",
          "name": "tokenId",
          "type": "uint256"
        }
      ],
      "name": "safeTransferFrom",
      "outputs": [],
      "stateMutability": "nonpayable",
      "type": "function"
    },
    {
      "inputs": [
        {
          "internalType": "address",
          "name": "from",
          "type": "address"
        },
        {
          "internalType": "address",
          "name": "to",
          "type": "address"
        },
        {
          "internalType": "uint256",
          "name": "tokenId",
          "type": "uint256"
        },
        {
          "internalType": "bytes",
          "name": "data",
          "type": "bytes"
        }
      ],
      "name": "safeTransferFrom",
      "outputs": [],
      "stateMutability": "nonpayable",
      "type": "function"
    },
    {
      "inputs": [
        {
          "internalType": "address",
          "name": "operator",
          "type": "address"
        },
        {
          "internalType": "bool",
          "name": "approved",
          "type": "bool"
        }
      ],
      "name": "setApprovalForAll",
      "outputs": [],
      "stateMutability": "nonpayable",
      "type": "function"
    },
    {
      "inputs": [
        {
          "internalType": "bytes4",
          "name": "interfaceId",
          "type": "bytes4"
        }
      ],
      "name": "supportsInterface",
      "outputs": [
        {
          "internalType": "bool",
          "name": "",
          "type": "bool"
        }
      ],
      "stateMutability": "view",
      "type": "function"
    },
    {
      "inputs": [],
      "name": "symbol",
      "outputs": [
        {
          "internalType": "string",
          "name": "",
          "type": "string"
        }
      ],
      "stateMutability": "view",
      "type": "function"
    },
    {
      "inputs": [
        {
          "internalType": "uint256",
          "name": "tokenId",
          "type": "uint256"
        }
      ],
      "name": "tokenURI",
      "outputs": [
        {
          "internalType": "string",
          "name": "",
          "type": "string"
        }
      ],
      "stateMutability": "view",
      "type": "function"
    },
    {
      "inputs": [
        {
          "internalType": "address",
          "name": "from",
          "type": "address"
        },
        {
          "internalType": "address",
          "name": "to",
          "type": "address"
        },
        {
          "internalType": "uint256",
          "name": "tokenId",
          "type": "uint256"
        }
      ],
      "name": "transferFrom",
      "outputs": [],
      "stateMutability": "nonpayable",
      "type": "function"
    },
    {
      "inputs": [],
      "name": "unpause",
      "outputs": [],
      "stateMutability": "nonpayable",
      "type": "function"
    }
  ],
  "bytecode": "0x60806040523480156200001157600080fd5b506200001c62000022565b620000e4565b600054610100900460ff16156200008f5760405162461bcd60e51b815260206004820152602760248201527f496e697469616c697a61626c653a20636f6e747261637420697320696e697469604482015266616c697a696e6760c81b606482015260840160405180910390fd5b60005460ff9081161015620000e2576000805460ff191660ff9081179091556040519081527f7f26b83ff96e1f2b6a682f133852f6798a09c465da95921460cefb38474024989060200160405180910390a15b565b6132d180620000f46000396000f3fe608060405234801561001057600080fd5b50600436106102065760003560e01c80637ecebe001161011a578063a22cb465116100ad578063cd279c7c1161007c578063cd279c7c14610451578063d539139314610464578063d547741f1461048b578063e63ab1e91461049e578063e985e9c5146104b357600080fd5b8063a22cb46514610405578063b88d4fde14610418578063c3cda5201461042b578063c87b56dd1461043e57600080fd5b806391d14854116100e957806391d14854146103cf57806395d89b41146103e25780639ab24eb0146103ea578063a217fddf146103fd57600080fd5b80637ecebe00146103995780638129fc1c146103ac5780638456cb59146103b45780638e539e8c146103bc57600080fd5b806336568abe1161019d578063587cde1e1161016c578063587cde1e146103285780635c19a95c146103555780635c975abb146103685780636352211e1461037357806370a082311461038657600080fd5b806336568abe146102e75780633a46b1a8146102fa5780633f4ba83a1461030d57806342842e0e1461031557600080fd5b806323b872dd116101d957806323b872dd14610288578063248a9ca31461029b5780632f2ff15d146102cc5780633644e515146102df57600080fd5b806301ffc9a71461020b57806306fdde0314610233578063081812fc14610248578063095ea7b314610273575b600080fd5b61021e610219366004612b97565b6104ef565b60405190151581526020015b60405180910390f35b61023b610500565b60405161022a9190612c0c565b61025b610256366004612c1f565b610592565b6040516001600160a01b03909116815260200161022a565b610286610281366004612c54565b6105b9565b005b610286610296366004612c7e565b6106d4565b6102be6102a9366004612c1f565b600090815260fb602052604090206001015490565b60405190815260200161022a565b6102866102da366004612cba565b610705565b6102be61072a565b6102866102f5366004612cba565b610739565b6102be610308366004612c54565b6107b7565b6102866107e1565b610286610323366004612c7e565b610804565b61025b610336366004612ce6565b6001600160a01b03908116600090815261016160205260409020541690565b610286610363366004612ce6565b61081f565b60c95460ff1661021e565b61025b610381366004612c1f565b61082a565b6102be610394366004612ce6565b61088a565b6102be6103a7366004612ce6565b610910565b61028661092f565b610286610b34565b6102be6103ca366004612c1f565b610b54565b61021e6103dd366004612cba565b610bb1565b61023b610bdc565b6102be6103f8366004612ce6565b610beb565b6102be600081565b610286610413366004612d01565b610c1c565b610286610426366004612dc9565b610c27565b610286610439366004612e45565b610c5f565b61023b61044c366004612c1f565b610d8c565b61028661045f366004612ea5565b610d97565b6102be7f9f2df0fed2c77648de5860a4cc508cd0818c85b8b8a1ab4ceeef8d981c8956a681565b610286610499366004612cba565b610dd5565b6102be60008051602061327c83398151915281565b61021e6104c1366004612f10565b6001600160a01b039182166000908152606a6020908152604080832093909416825291909152205460ff1690565b60006104fa82610dfa565b92915050565b60606065805461050f90612f3a565b80601f016020809104026020016040519081016040528092919081815260200182805461053b90612f3a565b80156105885780601f1061055d57610100808354040283529160200191610588565b820191906000526020600020905b81548152906001019060200180831161056b57829003601f168201915b5050505050905090565b600061059d82610e1f565b506000908152606960205260409020546001600160a01b031690565b60006105c48261082a565b9050806001600160a01b0316836001600160a01b031614156106375760405162461bcd60e51b815260206004820152602160248201527f4552433732313a20617070726f76616c20746f2063757272656e74206f776e656044820152603960f91b60648201526084015b60405180910390fd5b336001600160a01b0382161480610653575061065381336104c1565b6106c55760405162461bcd60e51b815260206004820152603d60248201527f4552433732313a20617070726f76652063616c6c6572206973206e6f7420746f60448201527f6b656e206f776e6572206f7220617070726f76656420666f7220616c6c000000606482015260840161062e565b6106cf8383610e7e565b505050565b6106de3382610eec565b6106fa5760405162461bcd60e51b815260040161062e90612f6f565b6106cf838383610f6b565b600082815260fb6020526040902060010154610720816110e4565b6106cf83836110ee565b6000610734611174565b905090565b6001600160a01b03811633146107a95760405162461bcd60e51b815260206004820152602f60248201527f416363657373436f6e74726f6c3a2063616e206f6e6c792072656e6f756e636560448201526e103937b632b9903337b91039b2b63360891b606482015260840161062e565b6107b382826111f1565b5050565b6001600160a01b0382166000908152610162602052604081206107da9083611258565b9392505050565b60008051602061327c8339815191526107f9816110e4565b610801611374565b50565b6106cf83838360405180602001604052806000815250610c27565b336107b381836113c6565b6000818152606760205260408120546001600160a01b0316806104fa5760405162461bcd60e51b8152602060048201526018602482015277115490cdcc8c4e881a5b9d985b1a59081d1bdad95b88125160421b604482015260640161062e565b60006001600160a01b0382166108f45760405162461bcd60e51b815260206004820152602960248201527f4552433732313a2061646472657373207a65726f206973206e6f7420612076616044820152683634b21037bbb732b960b91b606482015260840161062e565b506001600160a01b031660009081526068602052604090205490565b6001600160a01b038116600090815261016460205260408120546104fa565b600054610100900460ff161580801561094f5750600054600160ff909116105b806109695750303b158015610969575060005460ff166001145b6109cc5760405162461bcd60e51b815260206004820152602e60248201527f496e697469616c697a61626c653a20636f6e747261637420697320616c72656160448201526d191e481a5b9a5d1a585b1a5e995960921b606482015260840161062e565b6000805460ff1916600117905580156109ef576000805461ff0019166101001790555b610a386040518060400160405280600c81526020016b25b0b73a30b937aa37b5b2b760a11b815250604051806040016040528060038152602001624b544b60e81b815250611439565b610a4061146a565b610a48611493565b610a5061146a565b610a976040518060400160405280600c81526020016b25b0b73a30b937aa37b5b2b760a11b815250604051806040016040528060018152602001603160f81b8152506114c2565b610a9f61146a565b610aaa6000336110ee565b610ac260008051602061327c833981519152336110ee565b610aec7f9f2df0fed2c77648de5860a4cc508cd0818c85b8b8a1ab4ceeef8d981c8956a6336110ee565b8015610801576000805461ff0019169055604051600181527f7f26b83ff96e1f2b6a682f133852f6798a09c465da95921460cefb38474024989060200160405180910390a150565b60008051602061327c833981519152610b4c816110e4565b6108016114f3565b6000438210610ba55760405162461bcd60e51b815260206004820152601a60248201527f566f7465733a20626c6f636b206e6f7420796574206d696e6564000000000000604482015260640161062e565b6104fa61016383611258565b600091825260fb602090815260408084206001600160a01b0393909316845291905290205460ff1690565b60606066805461050f90612f3a565b6001600160a01b038116600090815261016260205260408120610c0d90611530565b6001600160e01b031692915050565b6107b333838361156a565b610c313383610eec565b610c4d5760405162461bcd60e51b815260040161062e90612f6f565b610c5984848484611639565b50505050565b83421115610caf5760405162461bcd60e51b815260206004820152601860248201527f566f7465733a207369676e617475726520657870697265640000000000000000604482015260640161062e565b604080517fe48329057bfd03d55e49b547132e39cffd9c1820ad7b9d4c5307691425d15adf60208201526001600160a01b038816918101919091526060810186905260808101859052600090610d2990610d219060a0016040516020818303038152906040528051906020012061166c565b8585856116ba565b9050610d34816116e2565b8614610d795760405162461bcd60e51b8152602060048201526014602482015273566f7465733a20696e76616c6964206e6f6e636560601b604482015260640161062e565b610d8381886113c6565b50505050505050565b60606104fa8261170b565b7f9f2df0fed2c77648de5860a4cc508cd0818c85b8b8a1ab4ceeef8d981c8956a6610dc1816110e4565b610dcb848461182c565b610c598383611846565b600082815260fb6020526040902060010154610df0816110e4565b6106cf83836111f1565b60006001600160e01b03198216637965db0b60e01b14806104fa57506104fa826118e0565b6000818152606760205260409020546001600160a01b03166108015760405162461bcd60e51b8152602060048201526018602482015277115490cdcc8c4e881a5b9d985b1a59081d1bdad95b88125160421b604482015260640161062e565b600081815260696020526040902080546001600160a01b0319166001600160a01b0384169081179091558190610eb38261082a565b6001600160a01b03167f8c5be1e5ebec7d5bd14f71427d1e84f3dd0314c0f7b2291e5b200ac8c7c3b92560405160405180910390a45050565b600080610ef88361082a565b9050806001600160a01b0316846001600160a01b03161480610f3f57506001600160a01b038082166000908152606a602090815260408083209388168352929052205460ff165b80610f635750836001600160a01b0316610f5884610592565b6001600160a01b0316145b949350505050565b826001600160a01b0316610f7e8261082a565b6001600160a01b031614610fa45760405162461bcd60e51b815260040161062e90612fbc565b6001600160a01b0382166110065760405162461bcd60e51b8152602060048201526024808201527f4552433732313a207472616e7366657220746f20746865207a65726f206164646044820152637265737360e01b606482015260840161062e565b6110138383836001611930565b826001600160a01b03166110268261082a565b6001600160a01b03161461104c5760405162461bcd60e51b815260040161062e90612fbc565b600081815260696020908152604080832080546001600160a01b03199081169091556001600160a01b0387811680865260688552838620805460001901905590871680865283862080546001019055868652606790945282852080549092168417909155905184937fddf252ad1be2c89b69c2b068fc378daa952ba7f163c4a11628f55a4df523b3ef91a46106cf8383836001611944565b6108018133611950565b6110f88282610bb1565b6107b357600082815260fb602090815260408083206001600160a01b03851684529091529020805460ff191660011790556111303390565b6001600160a01b0316816001600160a01b0316837f2f8788117e7eff1d82e926ec794901d17c78024a50270940304540a733656f0d60405160405180910390a45050565b60006107347f8b73c3c69bb8fe3d512ecc4cf759cc79239f7b179b0ffacaa9a75d522b39400f6111a461012d5490565b61012e546040805160208101859052908101839052606081018290524660808201523060a082015260009060c0016040516020818303038152906040528051906020012090509392505050565b6111fb8282610bb1565b156107b357600082815260fb602090815260408083206001600160a01b0385168085529252808320805460ff1916905551339285917ff6391f5c32d9c69d2a47ea670b442974b53935d1edc7fd64eb21e047a839171b9190a45050565b60004382106112a95760405162461bcd60e51b815260206004820181905260248201527f436865636b706f696e74733a20626c6f636b206e6f7420796574206d696e6564604482015260640161062e565b60006112b4836119a9565b845490915060008160058111156113125760006112d084611a12565b6112da9085613017565b60008981526020902090915081015463ffffffff908116908616101561130257809150611310565b61130d81600161302e565b92505b505b600061132088868585611af7565b9050801561135c5761134588611337600184613017565b600091825260209091200190565b5464010000000090046001600160e01b031661135f565b60005b6001600160e01b031698975050505050505050565b61137c611b55565b60c9805460ff191690557f5db9ee0a495bf2e6ff9c91a7834c1ba4fdd244a5e8aa4e537bd38aeae4b073aa335b6040516001600160a01b03909116815260200160405180910390a1565b6001600160a01b038281166000818152610161602052604080822080548686166001600160a01b0319821681179092559151919094169392849290917f3134e8a2e6d97e929a7e54011ea5485d7d196dd5f0ba4d4ef95803e8e3fc257f9190a46106cf818361143486611b9e565b611ba9565b600054610100900460ff166114605760405162461bcd60e51b815260040161062e90613046565b6107b38282611ce8565b600054610100900460ff166114915760405162461bcd60e51b815260040161062e90613046565b565b600054610100900460ff166114ba5760405162461bcd60e51b815260040161062e90613046565b611491611d36565b600054610100900460ff166114e95760405162461bcd60e51b815260040161062e90613046565b6107b38282611d69565b6114fb611dac565b60c9805460ff191660011790557f62e78cea01bee320cd4e420270b5ea74000d11b0c9f74754ebdbfc544b05a2586113a93390565b805460009080156115615761154a83611337600184613017565b5464010000000090046001600160e01b03166107da565b60009392505050565b816001600160a01b0316836001600160a01b031614156115cc5760405162461bcd60e51b815260206004820152601960248201527f4552433732313a20617070726f766520746f2063616c6c657200000000000000604482015260640161062e565b6001600160a01b038381166000818152606a6020908152604080832094871680845294825291829020805460ff191686151590811790915591519182527f17307eab39ab6107e8899845ad3d59bd9653f200f220920489ca2b5937696c31910160405180910390a3505050565b611644848484610f6b565b61165084848484611df2565b610c595760405162461bcd60e51b815260040161062e90613091565b60006104fa611679611174565b8360405161190160f01b6020820152602281018390526042810182905260009060620160405160208183030381529060405280519060200120905092915050565b60008060006116cb87878787611efc565b915091506116d881611fc0565b5095945050505050565b6001600160a01b0381166000908152610164602052604090208054600181018255905b50919050565b606061171682610e1f565b6000828152609760205260408120805461172f90612f3a565b80601f016020809104026020016040519081016040528092919081815260200182805461175b90612f3a565b80156117a85780601f1061177d576101008083540402835291602001916117a8565b820191906000526020600020905b81548152906001019060200180831161178b57829003601f168201915b5050505050905060006117de60408051808201909152601081526f1a1d1d1c0e8bcbdb1bd8d85b1a1bdcdd60821b602082015290565b90508051600014156117f1575092915050565b81511561182357808260405160200161180b9291906130e3565b60405160208183030381529060405292505050919050565b610f638461210e565b6107b3828260405180602001604052806000815250612199565b6000828152606760205260409020546001600160a01b03166118c15760405162461bcd60e51b815260206004820152602e60248201527f45524337323155524953746f726167653a2055524920736574206f66206e6f6e60448201526d32bc34b9ba32b73a103a37b5b2b760911b606482015260840161062e565b600082815260976020908152604090912082516106cf92840190612af1565b60006001600160e01b031982166380ac58cd60e01b148061191157506001600160e01b03198216635b5e139f60e01b145b806104fa57506301ffc9a760e01b6001600160e01b03198316146104fa565b611938611dac565b610c59848484846121cc565b610c5984848484612254565b61195a8282610bb1565b6107b35761196781612264565b611972836020612276565b604051602001611983929190613112565b60408051601f198184030181529082905262461bcd60e51b825261062e91600401612c0c565b600063ffffffff821115611a0e5760405162461bcd60e51b815260206004820152602660248201527f53616665436173743a2076616c756520646f65736e27742066697420696e203360448201526532206269747360d01b606482015260840161062e565b5090565b600081611a2157506000919050565b60006001611a2e84612412565b901c6001901b90506001818481611a4757611a47613187565b048201901c90506001818481611a5f57611a5f613187565b048201901c90506001818481611a7757611a77613187565b048201901c90506001818481611a8f57611a8f613187565b048201901c90506001818481611aa757611aa7613187565b048201901c90506001818481611abf57611abf613187565b048201901c90506001818481611ad757611ad7613187565b048201901c90506107da81828581611af157611af1613187565b046124a6565b60005b81831015611b4d576000611b0e84846124bc565b60008781526020902090915063ffffffff86169082015463ffffffff161115611b3957809250611b47565b611b4481600161302e565b93505b50611afa565b509392505050565b60c95460ff166114915760405162461bcd60e51b815260206004820152601460248201527314185d5cd8589b194e881b9bdd081c185d5cd95960621b604482015260640161062e565b60006104fa8261088a565b816001600160a01b0316836001600160a01b031614158015611bcb5750600081115b156106cf576001600160a01b03831615611c5a576001600160a01b0383166000908152610162602052604081208190611c07906124d7856124e3565b91509150846001600160a01b03167fdec2bacdd2f05b59de34da9b523dff8be42e5e38e818c82fdb0bae774387a7248383604051611c4f929190918252602082015260400190565b60405180910390a250505b6001600160a01b038216156106cf576001600160a01b0382166000908152610162602052604081208190611c919061251b856124e3565b91509150836001600160a01b03167fdec2bacdd2f05b59de34da9b523dff8be42e5e38e818c82fdb0bae774387a7248383604051611cd9929190918252602082015260400190565b60405180910390a25050505050565b600054610100900460ff16611d0f5760405162461bcd60e51b815260040161062e90613046565b8151611d22906065906020850190612af1565b5080516106cf906066906020840190612af1565b600054610100900460ff16611d5d5760405162461bcd60e51b815260040161062e90613046565b60c9805460ff19169055565b600054610100900460ff16611d905760405162461bcd60e51b815260040161062e90613046565b81516020928301208151919092012061012d9190915561012e55565b60c95460ff16156114915760405162461bcd60e51b815260206004820152601060248201526f14185d5cd8589b194e881c185d5cd95960821b604482015260640161062e565b60006001600160a01b0384163b15611ef457604051630a85bd0160e11b81526001600160a01b0385169063150b7a0290611e3690339089908890889060040161319d565b602060405180830381600087803b158015611e5057600080fd5b505af1925050508015611e80575060408051601f3d908101601f19168201909252611e7d918101906131da565b60015b611eda573d808015611eae576040519150601f19603f3d011682016040523d82523d6000602084013e611eb3565b606091505b508051611ed25760405162461bcd60e51b815260040161062e90613091565b805181602001fd5b6001600160e01b031916630a85bd0160e11b149050610f63565b506001610f63565b6000807f7fffffffffffffffffffffffffffffff5d576e7357a4501ddfe92f46681b20a0831115611f335750600090506003611fb7565b6040805160008082526020820180845289905260ff881692820192909252606081018690526080810185905260019060a0016020604051602081039080840390855afa158015611f87573d6000803e3d6000fd5b5050604051601f1901519150506001600160a01b038116611fb057600060019250925050611fb7565b9150600090505b94509492505050565b6000816004811115611fd457611fd46131f7565b1415611fdd5750565b6001816004811115611ff157611ff16131f7565b141561203f5760405162461bcd60e51b815260206004820152601860248201527f45434453413a20696e76616c6964207369676e61747572650000000000000000604482015260640161062e565b6002816004811115612053576120536131f7565b14156120a15760405162461bcd60e51b815260206004820152601f60248201527f45434453413a20696e76616c6964207369676e6174757265206c656e67746800604482015260640161062e565b60038160048111156120b5576120b56131f7565b14156108015760405162461bcd60e51b815260206004820152602260248201527f45434453413a20696e76616c6964207369676e6174757265202773272076616c604482015261756560f01b606482015260840161062e565b606061211982610e1f565b600061214860408051808201909152601081526f1a1d1d1c0e8bcbdb1bd8d85b1a1bdcdd60821b602082015290565b9050600081511161216857604051806020016040528060008152506107da565b8061217284612527565b6040516020016121839291906130e3565b6040516020818303038152906040529392505050565b6121a383836125bc565b6121b06000848484611df2565b6106cf5760405162461bcd60e51b815260040161062e90613091565b6001811115610c59576001600160a01b03841615612212576001600160a01b0384166000908152606860205260408120805483929061220c908490613017565b90915550505b6001600160a01b03831615610c59576001600160a01b0383166000908152606860205260408120805483929061224990849061302e565b909155505050505050565b61225f84848361275f565b610c59565b60606104fa6001600160a01b03831660145b6060600061228583600261320d565b61229090600261302e565b67ffffffffffffffff8111156122a8576122a8612d3d565b6040519080825280601f01601f1916602001820160405280156122d2576020820181803683370190505b509050600360fc1b816000815181106122ed576122ed61322c565b60200101906001600160f81b031916908160001a905350600f60fb1b8160018151811061231c5761231c61322c565b60200101906001600160f81b031916908160001a905350600061234084600261320d565b61234b90600161302e565b90505b60018111156123c3576f181899199a1a9b1b9c1cb0b131b232b360811b85600f166010811061237f5761237f61322c565b1a60f81b8282815181106123955761239561322c565b60200101906001600160f81b031916908160001a90535060049490941c936123bc81613242565b905061234e565b5083156107da5760405162461bcd60e51b815260206004820181905260248201527f537472696e67733a20686578206c656e67746820696e73756666696369656e74604482015260640161062e565b600080608083901c1561242757608092831c92015b604083901c1561243957604092831c92015b602083901c1561244b57602092831c92015b601083901c1561245d57601092831c92015b600883901c1561246f57600892831c92015b600483901c1561248157600492831c92015b600283901c1561249357600292831c92015b600183901c156104fa5760010192915050565b60008183106124b557816107da565b5090919050565b60006124cb6002848418613259565b6107da9084841661302e565b60006107da8284613017565b60008061250e856125096124f688611530565b6001600160e01b0316868863ffffffff16565b6127d2565b915091505b935093915050565b60006107da828461302e565b6060600061253483612806565b600101905060008167ffffffffffffffff81111561255457612554612d3d565b6040519080825280601f01601f19166020018201604052801561257e576020820181803683370190505b5090508181016020015b600019016f181899199a1a9b1b9c1cb0b131b232b360811b600a86061a8153600a85049450846125b757611b4d565b612588565b6001600160a01b0382166126125760405162461bcd60e51b815260206004820181905260248201527f4552433732313a206d696e7420746f20746865207a65726f2061646472657373604482015260640161062e565b6000818152606760205260409020546001600160a01b0316156126775760405162461bcd60e51b815260206004820152601c60248201527f4552433732313a20746f6b656e20616c7265616479206d696e74656400000000604482015260640161062e565b612685600083836001611930565b6000818152606760205260409020546001600160a01b0316156126ea5760405162461bcd60e51b815260206004820152601c60248201527f4552433732313a20746f6b656e20616c7265616479206d696e74656400000000604482015260640161062e565b6001600160a01b038216600081815260686020908152604080832080546001019055848352606790915280822080546001600160a01b0319168417905551839291907fddf252ad1be2c89b69c2b068fc378daa952ba7f163c4a11628f55a4df523b3ef908290a46107b3600083836001611944565b6001600160a01b03831661277f5761277c61016361251b836124e3565b50505b6001600160a01b03821661279f5761279c6101636124d7836124e3565b50505b6001600160a01b03838116600090815261016160205260408082205485841683529120546106cf92918216911683611ba9565b6000806127f0846127e2436119a9565b6127eb866128de565b612947565b6001600160e01b03918216969116945092505050565b60008072184f03e93ff9f4daa797ed6e38ed64bf6a1f0160401b83106128455772184f03e93ff9f4daa797ed6e38ed64bf6a1f0160401b830492506040015b6d04ee2d6d415b85acef81000000008310612871576d04ee2d6d415b85acef8100000000830492506020015b662386f26fc10000831061288f57662386f26fc10000830492506010015b6305f5e10083106128a7576305f5e100830492506008015b61271083106128bb57612710830492506004015b606483106128cd576064830492506002015b600a83106104fa5760010192915050565b60006001600160e01b03821115611a0e5760405162461bcd60e51b815260206004820152602760248201527f53616665436173743a2076616c756520646f65736e27742066697420696e20326044820152663234206269747360c81b606482015260840161062e565b825460009081908015612a9757600061296587611337600185613017565b60408051808201909152905463ffffffff8082168084526401000000009092046001600160e01b0316602084015291925090871610156129e75760405162461bcd60e51b815260206004820152601760248201527f436865636b706f696e743a20696e76616c6964206b6579000000000000000000604482015260640161062e565b8563ffffffff16816000015163ffffffff161415612a375784612a0f88611337600186613017565b80546001600160e01b03929092166401000000000263ffffffff909216919091179055612a87565b6040805180820190915263ffffffff80881682526001600160e01b0380881660208085019182528b54600181018d5560008d81529190912094519151909216640100000000029216919091179101555b6020015192508391506125139050565b50506040805180820190915263ffffffff80851682526001600160e01b0380851660208085019182528854600181018a5560008a815291822095519251909316640100000000029190931617920191909155905081612513565b828054612afd90612f3a565b90600052602060002090601f016020900481019282612b1f5760008555612b65565b82601f10612b3857805160ff1916838001178555612b65565b82800160010185558215612b65579182015b82811115612b65578251825591602001919060010190612b4a565b50611a0e9291505b80821115611a0e5760008155600101612b6d565b6001600160e01b03198116811461080157600080fd5b600060208284031215612ba957600080fd5b81356107da81612b81565b60005b83811015612bcf578181015183820152602001612bb7565b83811115610c595750506000910152565b60008151808452612bf8816020860160208601612bb4565b601f01601f19169290920160200192915050565b6020815260006107da6020830184612be0565b600060208284031215612c3157600080fd5b5035919050565b80356001600160a01b0381168114612c4f57600080fd5b919050565b60008060408385031215612c6757600080fd5b612c7083612c38565b946020939093013593505050565b600080600060608486031215612c9357600080fd5b612c9c84612c38565b9250612caa60208501612c38565b9150604084013590509250925092565b60008060408385031215612ccd57600080fd5b82359150612cdd60208401612c38565b90509250929050565b600060208284031215612cf857600080fd5b6107da82612c38565b60008060408385031215612d1457600080fd5b612d1d83612c38565b915060208301358015158114612d3257600080fd5b809150509250929050565b634e487b7160e01b600052604160045260246000fd5b600067ffffffffffffffff80841115612d6e57612d6e612d3d565b604051601f8501601f19908116603f01168101908282118183101715612d9657612d96612d3d565b81604052809350858152868686011115612daf57600080fd5b858560208301376000602087830101525050509392505050565b60008060008060808587031215612ddf57600080fd5b612de885612c38565b9350612df660208601612c38565b925060408501359150606085013567ffffffffffffffff811115612e1957600080fd5b8501601f81018713612e2a57600080fd5b612e3987823560208401612d53565b91505092959194509250565b60008060008060008060c08789031215612e5e57600080fd5b612e6787612c38565b95506020870135945060408701359350606087013560ff81168114612e8b57600080fd5b9598949750929560808101359460a0909101359350915050565b600080600060608486031215612eba57600080fd5b612ec384612c38565b925060208401359150604084013567ffffffffffffffff811115612ee657600080fd5b8401601f81018613612ef757600080fd5b612f0686823560208401612d53565b9150509250925092565b60008060408385031215612f2357600080fd5b612f2c83612c38565b9150612cdd60208401612c38565b600181811c90821680612f4e57607f821691505b6020821081141561170557634e487b7160e01b600052602260045260246000fd5b6020808252602d908201527f4552433732313a2063616c6c6572206973206e6f7420746f6b656e206f776e6560408201526c1c881bdc88185c1c1c9bdd9959609a1b606082015260800190565b60208082526025908201527f4552433732313a207472616e736665722066726f6d20696e636f72726563742060408201526437bbb732b960d91b606082015260800190565b634e487b7160e01b600052601160045260246000fd5b60008282101561302957613029613001565b500390565b6000821982111561304157613041613001565b500190565b6020808252602b908201527f496e697469616c697a61626c653a20636f6e7472616374206973206e6f74206960408201526a6e697469616c697a696e6760a81b606082015260800190565b60208082526032908201527f4552433732313a207472616e7366657220746f206e6f6e20455243373231526560408201527131b2b4bb32b91034b6b83632b6b2b73a32b960711b606082015260800190565b600083516130f5818460208801612bb4565b835190830190613109818360208801612bb4565b01949350505050565b7f416363657373436f6e74726f6c3a206163636f756e742000000000000000000081526000835161314a816017850160208801612bb4565b7001034b99036b4b9b9b4b733903937b6329607d1b601791840191820152835161317b816028840160208801612bb4565b01602801949350505050565b634e487b7160e01b600052601260045260246000fd5b6001600160a01b03858116825284166020820152604081018390526080606082018190526000906131d090830184612be0565b9695505050505050565b6000602082840312156131ec57600080fd5b81516107da81612b81565b634e487b7160e01b600052602160045260246000fd5b600081600019048311821515161561322757613227613001565b500290565b634e487b7160e01b600052603260045260246000fd5b60008161325157613251613001565b506000190190565b60008261327657634e487b7160e01b600052601260045260246000fd5b50049056fe65d7a28e3265b37a6474929f336521b332c1681b933f6cb9f3376673440d862aa2646970667358221220685d31be7109c718cd2a7e6e7963d62f2f385d79b8f786dda07ffa3902d9667564736f6c63430008090033",
  "linkReferences": {},
  "deployedLinkReferences": {}
}